{
  "contractName": "GachaV2",
  "abi": [
    {
      "anonymous": false,
      "inputs": [
        {
          "indexed": false,
          "internalType": "string",
          "name": "CharName",
          "type": "string"
        },
        {
          "indexed": false,
          "internalType": "uint8",
          "name": "Rating",
          "type": "uint8"
        }
      ],
      "name": "WantGachaPull",
      "type": "event"
    },
    {
      "inputs": [
        {
          "internalType": "uint256",
          "name": "",
          "type": "uint256"
        }
      ],
      "name": "PullResult",
      "outputs": [
        {
          "internalType": "string",
          "name": "naam",
          "type": "string"
        },
        {
          "internalType": "uint8",
          "name": "Rating",
          "type": "uint8"
        }
      ],
      "stateMutability": "view",
      "type": "function",
      "constant": true
    },
    {
      "inputs": [],
      "name": "initialize",
      "outputs": [],
      "stateMutability": "payable",
      "type": "function",
      "payable": true
    },
    {
      "inputs": [
        {
          "internalType": "uint256",
          "name": "pull",
          "type": "uint256"
        }
      ],
      "name": "Start",
      "outputs": [],
      "stateMutability": "payable",
      "type": "function",
      "payable": true
    },
    {
      "inputs": [
        {
          "internalType": "bytes32",
          "name": "_myid",
          "type": "bytes32"
        },
        {
          "internalType": "string",
          "name": "_result",
          "type": "string"
        }
      ],
      "name": "__callback",
      "outputs": [],
      "stateMutability": "nonpayable",
      "type": "function"
    },
    {
      "inputs": [
        {
          "internalType": "bytes32",
          "name": "_queryId",
          "type": "bytes32"
        },
        {
          "internalType": "string",
          "name": "_result",
          "type": "string"
        },
        {
          "internalType": "bytes",
          "name": "_proof",
          "type": "bytes"
        }
      ],
      "name": "__callback",
      "outputs": [],
      "stateMutability": "nonpayable",
      "type": "function"
    }
  ],
  "bytecode": "0x608060405234801561001057600080fd5b506149d9806100206000396000f3fe60806040526004361061004a5760003560e01c806327dc297e1461004f57806338bbfa50146101215780638129fc1c1461028a578063e838f0c914610294578063f06a29c914610352575b600080fd5b34801561005b57600080fd5b5061011f6004803603604081101561007257600080fd5b81019080803590602001909291908035906020019064010000000081111561009957600080fd5b8201836020820111156100ab57600080fd5b803590602001918460018302840111640100000000831117156100cd57600080fd5b91908080601f016020809104026020016040519081016040528093929190818152602001838380828437600081840152601f19601f820116905080830192505050505050509192919290505050610380565b005b34801561012d57600080fd5b506102886004803603606081101561014457600080fd5b81019080803590602001909291908035906020019064010000000081111561016b57600080fd5b82018360208201111561017d57600080fd5b8035906020019184600183028401116401000000008311171561019f57600080fd5b91908080601f016020809104026020016040519081016040528093929190818152602001838380828437600081840152601f19601f8201169050808301925050505050505091929192908035906020019064010000000081111561020257600080fd5b82018360208201111561021457600080fd5b8035906020019184600183028401116401000000008311171561023657600080fd5b91908080601f016020809104026020016040519081016040528093929190818152602001838380828437600081840152601f19601f8201169050808301925050505050505091929192905050506103da565b005b6102926104bc565b005b3480156102a057600080fd5b506102cd600480360360208110156102b757600080fd5b8101908080359060200190929190505050610aeb565b60405180806020018360ff168152602001828103825284818151815260200191508051906020019080838360005b838110156103165780820151818401526020810190506102fb565b50505050905090810190601f1680156103435780820380516001836020036101000a031916815260200191505b50935050505060405180910390f35b61037e6004803603602081101561036857600080fd5b8101908080359060200190929190505050610bb4565b005b6103d68282600067ffffffffffffffff8111801561039d57600080fd5b506040519080825280601f01601f1916602001820160405280156103d05781602001600182028036833780820191505090505b506103da565b5050565b6103e2610d8b565b73ffffffffffffffffffffffffffffffffffffffff163373ffffffffffffffffffffffffffffffffffffffff161461041957600080fd5b60006104268484846110a8565b60ff1614156104b7576104b660c8836040516020018082805190602001908083835b6020831061046b5780518252602082019150602081019050602083039250610448565b6001836020036101000a0380198251168184511680821785525050505050509050019150506040516020818303038152906040528051906020012060001c816104b057fe5b066111d8565b5b505050565b600560019054906101000a900460ff16806104db57506104da6116ee565b5b806104f35750600560009054906101000a900460ff16155b610548576040517f08c379a000000000000000000000000000000000000000000000000000000000815260040180806020018281038252602e8152602001806148a8602e913960400191505060405180910390fd5b6000600560019054906101000a900460ff16159050801561059a576001600560016101000a81548160ff0219169083151502179055506001600560006101000a81548160ff0219169083151502179055505b6105a7603060f81b611705565b600060068190555060405180604001604052806040518060400160405280600381526020017f626c6100000000000000000000000000000000000000000000000000000000008152508152602001600160ff16815250600a600060018152602001908152602001600020600082015181600001908051906020019061062d929190614618565b5060208201518160010160006101000a81548160ff021916908360ff1602179055509050506040518060a001604052806040518060400160405280600581526020017f44696c756300000000000000000000000000000000000000000000000000000081525081526020016040518060400160405280600681526020017f4b6571696e67000000000000000000000000000000000000000000000000000081525081526020016040518060400160405280600481526020017f516971690000000000000000000000000000000000000000000000000000000081525081526020016040518060400160405280600581526020017f56656e746900000000000000000000000000000000000000000000000000000081525081526020016040518060400160405280600481526020017f4a65616e000000000000000000000000000000000000000000000000000000008152508152506007906005610792929190614698565b506040518060c001604052806040518060400160405280600681526020017f426569646f75000000000000000000000000000000000000000000000000000081525081526020016040518060400160405280600981526020017f5869616e676c696e67000000000000000000000000000000000000000000000081525081526020016040518060400160405280600581526020017f44696f6e6100000000000000000000000000000000000000000000000000000081525081526020016040518060400160405280600681526020017f46697363686c000000000000000000000000000000000000000000000000000081525081526020016040518060400160405280600781526020017f426172626172610000000000000000000000000000000000000000000000000081525081526020016040518060400160405280600581526020017f52617a6f72000000000000000000000000000000000000000000000000000000815250815250600890600661090e9291906146f8565b506040518060e001604052806040518060400160405280600581526020017f53776f726400000000000000000000000000000000000000000000000000000081525081526020016040518060400160405280600381526020017f426f77000000000000000000000000000000000000000000000000000000000081525081526020016040518060400160405280600681526020017f536869656c64000000000000000000000000000000000000000000000000000081525081526020016040518060400160405280600b81526020017f47726561742073776f726400000000000000000000000000000000000000000081525081526020016040518060400160405280600481526020017f4d6163650000000000000000000000000000000000000000000000000000000081525081526020016040518060400160405280600681526020017f4b6174616e61000000000000000000000000000000000000000000000000000081525081526020016040518060400160405280600581526020017f53616265720000000000000000000000000000000000000000000000000000008152508152506009906007610ac5929190614758565b508015610ae8576000600560016101000a81548160ff0219169083151502179055505b50565b600a602052806000526040600020600091509050806000018054600181600116156101000203166002900480601f016020809104026020016040519081016040528092919081815260200182805460018160011615610100020316600290048015610b975780601f10610b6c57610100808354040283529160200191610b97565b820191906000526020600020905b815481529060010190602001808311610b7a57829003601f168201915b5050505050908060010160009054906101000a900460ff16905082565b6611c37937e08000341015610c14576040517f08c379a000000000000000000000000000000000000000000000000000000000815260040180806020018281038252602681526020018061497e6026913960400191505060405180910390fd5b6001811480610c235750600a81145b610c78576040517f08c379a00000000000000000000000000000000000000000000000000000000081526004018080602001828103825260298152602001806148d66029913960400191505060405180910390fd5b806611c37937e0800074ffffffffffffffffffffffffffffffffffffffffff163481610ca057fe5b041015610cf8576040517f08c379a00000000000000000000000000000000000000000000000000000000081526004018080602001828103825260258152602001806148836025913960400191505060405180910390fd5b600a6611c37937e0800074ffffffffffffffffffffffffffffffffffffffffff163481610d2157fe5b041115610d79576040517f08c379a000000000000000000000000000000000000000000000000000000000815260040180806020018281038252603f8152602001806148ff603f913960400191505060405180910390fd5b80600681905550610d88611a29565b50565b60008073ffffffffffffffffffffffffffffffffffffffff16600160009054906101000a900473ffffffffffffffffffffffffffffffffffffffff1673ffffffffffffffffffffffffffffffffffffffff161480610e1357506000610e11600160009054906101000a900473ffffffffffffffffffffffffffffffffffffffff16611a57565b145b15610e2457610e226000611a62565b505b600160009054906101000a900473ffffffffffffffffffffffffffffffffffffffff1673ffffffffffffffffffffffffffffffffffffffff166338cc48316040518163ffffffff1660e01b8152600401602060405180830381600087803b158015610e8e57600080fd5b505af1158015610ea2573d6000803e3d6000fd5b505050506040513d6020811015610eb857600080fd5b810190808051906020019092919050505073ffffffffffffffffffffffffffffffffffffffff1660008054906101000a900473ffffffffffffffffffffffffffffffffffffffff1673ffffffffffffffffffffffffffffffffffffffff161461100057600160009054906101000a900473ffffffffffffffffffffffffffffffffffffffff1673ffffffffffffffffffffffffffffffffffffffff166338cc48316040518163ffffffff1660e01b8152600401602060405180830381600087803b158015610f8557600080fd5b505af1158015610f99573d6000803e3d6000fd5b505050506040513d6020811015610faf57600080fd5b81019080805190602001909291905050506000806101000a81548173ffffffffffffffffffffffffffffffffffffffff021916908373ffffffffffffffffffffffffffffffffffffffff1602179055505b60008054906101000a900473ffffffffffffffffffffffffffffffffffffffff1673ffffffffffffffffffffffffffffffffffffffff1663c281d19e6040518163ffffffff1660e01b8152600401602060405180830381600087803b15801561106857600080fd5b505af115801561107c573d6000803e3d6000fd5b505050506040513d602081101561109257600080fd5b8101908080519060200190929190505050905090565b60007f4c00000000000000000000000000000000000000000000000000000000000000826000815181106110d857fe5b602001015160f81c60f81b7effffffffffffffffffffffffffffffffffffffffffffffffffffffffffffff191614158061116b57507f50000000000000000000000000000000000000000000000000000000000000008260018151811061113b57fe5b602001015160f81c60f81b7effffffffffffffffffffffffffffffffffffffffffffffffffffffffffffff191614155b806111975750600160ff168260028151811061118357fe5b602001015160f81c60f81b60f81c60ff1614155b156111a557600190506111d1565b60006111ba8386866111b5611a73565b611b15565b9050806111cb5760029150506111d1565b60009150505b9392505050565b600081141561132a57600b604051806040016040528060076111ff85600780549050612234565b60ff168154811061120c57fe5b906000526020600020018054600181600116156101000203166002900480601f0160208091040260200160405190810160405280929190818152602001828054600181600116156101000203166002900480156112aa5780601f1061127f576101008083540402835291602001916112aa565b820191906000526020600020905b81548152906001019060200180831161128d57829003601f168201915b50505050508152602001600560ff1681525090806001815401808255809150506001900390600052602060002090600202016000909190919091506000820151816000019080519060200190611301929190614618565b5060208201518160010160006101000a81548160ff021916908360ff16021790555050506115cf565b60008111801561133b5750600a8111155b1561148957600b6040518060400160405280600861135e85600880549050612234565b60ff168154811061136b57fe5b906000526020600020018054600181600116156101000203166002900480601f0160208091040260200160405190810160405280929190818152602001828054600181600116156101000203166002900480156114095780601f106113de57610100808354040283529160200191611409565b820191906000526020600020905b8154815290600101906020018083116113ec57829003601f168201915b50505050508152602001600460ff1681525090806001815401808255809150506001900390600052602060002090600202016000909190919091506000820151816000019080519060200190611460929190614618565b5060208201518160010160006101000a81548160ff021916908360ff16021790555050506115ce565b600b604051806040016040528060096114a785600980549050612234565b60ff16815481106114b457fe5b906000526020600020018054600181600116156101000203166002900480601f0160208091040260200160405190810160405280929190818152602001828054600181600116156101000203166002900480156115525780601f1061152757610100808354040283529160200191611552565b820191906000526020600020905b81548152906001019060200180831161153557829003601f168201915b50505050508152602001600360ff16815250908060018154018082558091505060019003906000526020600020906002020160009091909190915060008201518160000190805190602001906115a9929190614618565b5060208201518160010160006101000a81548160ff021916908360ff16021790555050505b5b7f6b7901c8fb582367b368c3eb6e744f53b99ab62dc4f270d5a0ce6d2a88a62b6e600b6001600b80549050038154811061160557fe5b9060005260206000209060020201600001600b6001600b80549050038154811061162b57fe5b906000526020600020906002020160010160009054906101000a900460ff1660405180806020018360ff1681526020018281038252848181546001816001161561010002031660029004815260200191508054600181600116156101000203166002900480156116dc5780601f106116b1576101008083540402835291602001916116dc565b820191906000526020600020905b8154815290600101906020018083116116bf57829003601f168201915b5050935050505060405180910390a150565b6000803090506000813b9050600081149250505090565b600073ffffffffffffffffffffffffffffffffffffffff16600160009054906101000a900473ffffffffffffffffffffffffffffffffffffffff1673ffffffffffffffffffffffffffffffffffffffff16148061178c5750600061178a600160009054906101000a900473ffffffffffffffffffffffffffffffffffffffff16611a57565b145b1561179d5761179b6000611a62565b505b600160009054906101000a900473ffffffffffffffffffffffffffffffffffffffff1673ffffffffffffffffffffffffffffffffffffffff166338cc48316040518163ffffffff1660e01b8152600401602060405180830381600087803b15801561180757600080fd5b505af115801561181b573d6000803e3d6000fd5b505050506040513d602081101561183157600080fd5b810190808051906020019092919050505073ffffffffffffffffffffffffffffffffffffffff1660008054906101000a900473ffffffffffffffffffffffffffffffffffffffff1673ffffffffffffffffffffffffffffffffffffffff161461197957600160009054906101000a900473ffffffffffffffffffffffffffffffffffffffff1673ffffffffffffffffffffffffffffffffffffffff166338cc48316040518163ffffffff1660e01b8152600401602060405180830381600087803b1580156118fe57600080fd5b505af1158015611912573d6000803e3d6000fd5b505050506040513d602081101561192857600080fd5b81019080805190602001909291905050506000806101000a81548173ffffffffffffffffffffffffffffffffffffffff021916908373ffffffffffffffffffffffffffffffffffffffff1602179055505b60008054906101000a900473ffffffffffffffffffffffffffffffffffffffff1673ffffffffffffffffffffffffffffffffffffffff1663688dcfd7826040518263ffffffff1660e01b815260040180827effffffffffffffffffffffffffffffffffffffffffffffffffffffffffffff19168152602001915050600060405180830381600087803b158015611a0e57600080fd5b505af1158015611a22573d6000803e3d6000fd5b5050505050565b60005b600654811015611a5457611a466000600162030d4061229a565b508080600101915050611a2c565b50565b6000813b9050919050565b6000611a6c6128bf565b9050919050565b606060028054600181600116156101000203166002900480601f016020809104026020016040519081016040528092919081815260200182805460018160011615610100020316600290048015611b0b5780601f10611ae057610100808354040283529160200191611b0b565b820191906000526020600020905b815481529060010190602001808311611aee57829003601f168201915b5050505050905090565b6000806020600287604581518110611b2957fe5b602001015160f81c60f81b60f81c60ff16016044010190506060602067ffffffffffffffff81118015611b5b57600080fd5b506040519080825280601f01601f191660200182016040528015611b8e5781602001600182028036833780820191505090505b509050611ba087836020846000612e16565b50600284876040516020018083805190602001908083835b60208310611bdb5780518252602082019150602081019050602083039250611bb8565b6001836020036101000a038019825116818451168082178552505050505050905001828152602001925050506040516020818303038152906040526040518082805190602001908083835b60208310611c495780518252602082019150602081019050602083039250611c26565b6001836020036101000a038019825116818451168082178552505050505050905001915050602060405180830381855afa158015611c8b573d6000803e3d6000fd5b5050506040513d6020811015611ca057600080fd5b81019080805190602001909291905050506040516020018082815260200191505060405160208183030381529060405280519060200120818051906020012014611cef5760009250505061222c565b60606002886001604986010181518110611d0557fe5b602001015160f81c60f81b60f81c60ff160167ffffffffffffffff81118015611d2d57600080fd5b506040519080825280601f01601f191660200182016040528015611d605781602001600182028036833780820191505090505b509050611d7588604985018351846000612e16565b50611e406002826040518082805190602001908083835b60208310611daf5780518252602082019150602081019050602083039250611d8c565b6001836020036101000a038019825116818451168082178552505050505050905001915050602060405180830381855afa158015611df1573d6000803e3d6000fd5b5050506040513d6020811015611e0657600080fd5b8101908080519060200190929190505050878a6008602088010181518110611e2a57fe5b602001015160f81c60f81b60f81c60ff16612e75565b611e50576000935050505061222c565b6060602967ffffffffffffffff81118015611e6a57600080fd5b506040519080825280601f01601f191660200182016040528015611e9d5781602001600182028036833780820191505090505b509050611eb289602086016029846000612e16565b506060604067ffffffffffffffff81118015611ecd57600080fd5b506040519080825280601f01601f191660200182016040528015611f005781602001600182028036833780820191505090505b5090506000604184516029602089010101019050611f268b604083036040856000612e16565b5060006002836040518082805190602001908083835b60208310611f5f5780518252602082019150602081019050602083039250611f3c565b6001836020036101000a038019825116818451168082178552505050505050905001915050602060405180830381855afa158015611fa1573d6000803e3d6000fd5b5050506040513d6020811015611fb657600080fd5b8101908080519060200190929190505050905083816040516020018083805190602001908083835b602083106120015780518252602082019150602081019050602083039250611fde565b6001836020036101000a0380198251168184511680821785525050505050509050018281526020019250505060405160208183030381529060405280519060200120600360008d815260200190815260200160002054141561207957600360008c815260200190815260200160002060009055612089565b600097505050505050505061222c565b6060604967ffffffffffffffff811180156120a357600080fd5b506040519080825280601f01601f1916602001820160405280156120d65781602001600182028036833780820191505090505b5090506120e88d896049846000612e16565b506121916002826040518082805190602001908083835b6020831061212257805182526020820191506020810190506020830392506120ff565b6001836020036101000a038019825116818451168082178552505050505050905001915050602060405180830381855afa158015612164573d6000803e3d6000fd5b5050506040513d602081101561217957600080fd5b81019080805190602001909291905050508786612f22565b6121a65760009850505050505050505061222c565b6004600083815260200190815260200160002060009054906101000a900460ff16612200576121d58d8461310e565b6004600084815260200190815260200160002060006101000a81548160ff0219169083151502179055505b6004600083815260200190815260200160002060009054906101000a900460ff16985050505050505050505b949350505050565b600081423385604051602001808481526020018373ffffffffffffffffffffffffffffffffffffffff1660601b815260140182815260200193505050506040516020818303038152906040528051906020012060001c8161229157fe5b06905092915050565b600080831180156122ac575060208311155b6122b557600080fd5b600a840293506060600167ffffffffffffffff811180156122d557600080fd5b506040519080825280601f01601f1916602001820160405280156123085781602001600182028036833780820191505090505b5090508360f81b8160008151811061231c57fe5b60200101907effffffffffffffffffffffffffffffffffffffffffffffffffffffffffffff1916908160001a9053506060602067ffffffffffffffff8111801561236557600080fd5b506040519080825280601f01601f1916602001820160405280156123985781602001600182028036833780820191505090505b5090506060602067ffffffffffffffff811180156123b557600080fd5b506040519080825280601f01601f1916602001820160405280156123e85781602001600182028036833780820191505090505b50905060006123f561359a565b9050602083524241186001430340186020840152602082528060208301526060602067ffffffffffffffff8111801561242d57600080fd5b506040519080825280601f01601f1916602001820160405280156124605781602001600182028036833780820191505090505b5090508860208201526060600867ffffffffffffffff8111801561248357600080fd5b506040519080825280601f01601f1916602001820160405280156124b65781602001600182028036833780820191505090505b5090506124c98260186008846000612e16565b506124d26147b8565b604051806080016040528087815260200188815260200186815260200184815250905060006125376040518060400160405280600681526020017f72616e646f6d0000000000000000000000000000000000000000000000000000815250838c6138b5565b90506060600867ffffffffffffffff8111801561255357600080fd5b506040519080825280601f01601f1916602001820160405280156125865781602001600182028036833780820191505090505b50905060208401517f0100000000000000000000000000000000000000000000000000000000000000810460278301537e01000000000000000000000000000000000000000000000000000000000000810460268301537d010000000000000000000000000000000000000000000000000000000000810460258301537c0100000000000000000000000000000000000000000000000000000000810460248301537b01000000000000000000000000000000000000000000000000000000810460238301537a0100000000000000000000000000000000000000000000000000008104602283015379010000000000000000000000000000000000000000000000000081046021830153780100000000000000000000000000000000000000000000000081046020830153506128ac8282856001600481106126c557fe5b60200201516002876000600481106126d957fe5b60200201516040518082805190602001908083835b6020831061271157805182526020820191506020810190506020830392506126ee565b6001836020036101000a038019825116818451168082178552505050505050905001915050602060405180830381855afa158015612753573d6000803e3d6000fd5b5050506040513d602081101561276857600080fd5b81019080805190602001909291905050508760026004811061278657fe5b60200201516040516020018085805190602001908083835b602083106127c1578051825260208201915060208101905060208303925061279e565b6001836020036101000a03801982511681845116808217855250505050505090500184805190602001908083835b6020831061281257805182526020820191506020810190506020830392506127ef565b6001836020036101000a03801982511681845116808217855250505050505090500183815260200182805190602001908083835b602083106128695780518252602082019150602081019050602083039250612846565b6001836020036101000a03801982511681845116808217855250505050505090500194505050505060405160208183030381529060405280519060200120613c38565b8199505050505050505050509392505050565b6000806128df731d3b2638a7cc9f2cb3d298a3da7a90b67e5506ed611a57565b111561298157731d3b2638a7cc9f2cb3d298a3da7a90b67e5506ed600160006101000a81548173ffffffffffffffffffffffffffffffffffffffff021916908373ffffffffffffffffffffffffffffffffffffffff1602179055506129786040518060400160405280600b81526020017f6574685f6d61696e6e6574000000000000000000000000000000000000000000815250613c54565b60019050612e13565b60006129a073c03a2615d5efaf5f49f60b7bb6583eaec212fdf1611a57565b1115612a425773c03a2615d5efaf5f49f60b7bb6583eaec212fdf1600160006101000a81548173ffffffffffffffffffffffffffffffffffffffff021916908373ffffffffffffffffffffffffffffffffffffffff160217905550612a396040518060400160405280600c81526020017f6574685f726f707374656e330000000000000000000000000000000000000000815250613c54565b60019050612e13565b6000612a6173b7a07bcf2ba2f2703b24c0691b5278999c59ac7e611a57565b1115612b035773b7a07bcf2ba2f2703b24c0691b5278999c59ac7e600160006101000a81548173ffffffffffffffffffffffffffffffffffffffff021916908373ffffffffffffffffffffffffffffffffffffffff160217905550612afa6040518060400160405280600981526020017f6574685f6b6f76616e0000000000000000000000000000000000000000000000815250613c54565b60019050612e13565b6000612b2273146500cfd35b22e4a392fe0adc06de1a1368ed48611a57565b1115612bc45773146500cfd35b22e4a392fe0adc06de1a1368ed48600160006101000a81548173ffffffffffffffffffffffffffffffffffffffff021916908373ffffffffffffffffffffffffffffffffffffffff160217905550612bbb6040518060400160405280600b81526020017f6574685f72696e6b656279000000000000000000000000000000000000000000815250613c54565b60019050612e13565b6000612be373a2998efd205fb9d4b4963afb70778d6354ad3a41611a57565b1115612c855773a2998efd205fb9d4b4963afb70778d6354ad3a41600160006101000a81548173ffffffffffffffffffffffffffffffffffffffff021916908373ffffffffffffffffffffffffffffffffffffffff160217905550612c7c6040518060400160405280600a81526020017f6574685f676f65726c6900000000000000000000000000000000000000000000815250613c54565b60019050612e13565b6000612ca4736f485c8bf6fc43ea212e93bbf8ce046c7f1cb475611a57565b1115612d0857736f485c8bf6fc43ea212e93bbf8ce046c7f1cb475600160006101000a81548173ffffffffffffffffffffffffffffffffffffffff021916908373ffffffffffffffffffffffffffffffffffffffff16021790555060019050612e13565b6000612d277320e12a1f859b3feae5fb2a0a32c18f5a65555bbf611a57565b1115612d8b577320e12a1f859b3feae5fb2a0a32c18f5a65555bbf600160006101000a81548173ffffffffffffffffffffffffffffffffffffffff021916908373ffffffffffffffffffffffffffffffffffffffff16021790555060019050612e13565b6000612daa7351efaf4c8b3c9afbd5ab9f4bbc82784ab6ef8faa611a57565b1115612e0e577351efaf4c8b3c9afbd5ab9f4bbc82784ab6ef8faa600160006101000a81548173ffffffffffffffffffffffffffffffffffffffff021916908373ffffffffffffffffffffffffffffffffffffffff16021790555060019050612e13565b600090505b90565b6060600082850190508084511015612e2d57600080fd5b600086602001905060008460200190505b868860200101821015612e665781890151808288015250602082019150602081019050612e3e565b85935050505095945050505050565b6000806001905082845114612e8957600080fd5b60005b83811015612f1657848181518110612ea057fe5b602001015160f81c60f81b7effffffffffffffffffffffffffffffffffffffffffffffffffffffffffffff1916868260208110612ed957fe5b1a60f81b7effffffffffffffffffffffffffffffffffffffffffffffffffffffffffffff191614612f0957600091505b8080600101915050612e8c565b50809150509392505050565b60008060008060006060602067ffffffffffffffff81118015612f4457600080fd5b506040519080825280601f01601f191660200182016040528015612f775781602001600182028036833780820191505090505b5090506000602089600381518110612f8b57fe5b602001015160f81c60f81b60f81c60ff16036004019050612fb189826020856000612e16565b91506060602067ffffffffffffffff81118015612fcd57600080fd5b506040519080825280601f01601f1916602001820160405280156130005781602001600182028036833780820191505090505b50905060228201915061303c8a60208c600186038151811061301e57fe5b602001015160f81c60f81b60f81c60ff160384016020846000612e16565b905060208301519450602081015193506130598b601b8787613c6e565b80975081985050508573ffffffffffffffffffffffffffffffffffffffff16898051906020012060001c73ffffffffffffffffffffffffffffffffffffffff1614156130af576001975050505050505050613107565b6130bc8b601c8787613c6e565b80975081985050508573ffffffffffffffffffffffffffffffffffffffff16898051906020012060001c73ffffffffffffffffffffffffffffffffffffffff16149750505050505050505b9392505050565b6000806060600285600186018151811061312457fe5b602001015160f81c60f81b60f81c60ff160167ffffffffffffffff8111801561314c57600080fd5b506040519080825280601f01601f19166020018201604052801561317f5781602001600182028036833780820191505090505b50905061319185858351846000612e16565b506060604067ffffffffffffffff811180156131ac57600080fd5b506040519080825280601f01601f1916602001820160405280156131df5781602001600182028036833780820191505090505b5090506131f28660046040846000612e16565b506060606267ffffffffffffffff8111801561320d57600080fd5b506040519080825280601f01601f1916602001820160405280156132405781602001600182028036833780820191505090505b509050600160f81b8160008151811061325557fe5b60200101907effffffffffffffffffffffffffffffffffffffffffffffffffffffffffffff1916908160001a90535061329687604188036041846001612e16565b5060606040518060400160405280602081526020017ffd94fa71bc0ba10d39d464d0d8f465efeef0a2764e3887fcc9df41ded20f505c81525090506132e18160006020856042612e16565b5061338a6002836040518082805190602001908083835b6020831061331b57805182526020820191506020810190506020830392506132f8565b6001836020036101000a038019825116818451168082178552505050505050905001915050602060405180830381855afa15801561335d573d6000803e3d6000fd5b5050506040513d602081101561337257600080fd5b81019080805190602001909291905050508585612f22565b94508461339f57600095505050505050613594565b606060405180606001604052806040815260200161493e6040913990506060604267ffffffffffffffff811180156133d657600080fd5b506040519080825280601f01601f1916602001820160405280156134095781602001600182028036833780820191505090505b50905060fe60f81b8160008151811061341e57fe5b60200101907effffffffffffffffffffffffffffffffffffffffffffffffffffffffffffff1916908160001a90535061345d8a60036041846001612e16565b50606060028b60458151811061346f57fe5b602001015160f81c60f81b60f81c60ff160167ffffffffffffffff8111801561349757600080fd5b506040519080825280601f01601f1916602001820160405280156134ca5781602001600182028036833780820191505090505b5090506134dd8b60448351846000612e16565b506135866002836040518082805190602001908083835b6020831061351757805182526020820191506020810190506020830392506134f4565b6001836020036101000a038019825116818451168082178552505050505050905001915050602060405180830381855afa158015613559573d6000803e3d6000fd5b5050506040513d602081101561356e57600080fd5b81019080805190602001909291905050508285612f22565b975087985050505050505050505b92915050565b60008073ffffffffffffffffffffffffffffffffffffffff16600160009054906101000a900473ffffffffffffffffffffffffffffffffffffffff1673ffffffffffffffffffffffffffffffffffffffff16148061362257506000613620600160009054906101000a900473ffffffffffffffffffffffffffffffffffffffff16611a57565b145b15613633576136316000611a62565b505b600160009054906101000a900473ffffffffffffffffffffffffffffffffffffffff1673ffffffffffffffffffffffffffffffffffffffff166338cc48316040518163ffffffff1660e01b8152600401602060405180830381600087803b15801561369d57600080fd5b505af11580156136b1573d6000803e3d6000fd5b505050506040513d60208110156136c757600080fd5b810190808051906020019092919050505073ffffffffffffffffffffffffffffffffffffffff1660008054906101000a900473ffffffffffffffffffffffffffffffffffffffff1673ffffffffffffffffffffffffffffffffffffffff161461380f57600160009054906101000a900473ffffffffffffffffffffffffffffffffffffffff1673ffffffffffffffffffffffffffffffffffffffff166338cc48316040518163ffffffff1660e01b8152600401602060405180830381600087803b15801561379457600080fd5b505af11580156137a8573d6000803e3d6000fd5b505050506040513d60208110156137be57600080fd5b81019080805190602001909291905050506000806101000a81548173ffffffffffffffffffffffffffffffffffffffff021916908373ffffffffffffffffffffffffffffffffffffffff1602179055505b60008054906101000a900473ffffffffffffffffffffffffffffffffffffffff1673ffffffffffffffffffffffffffffffffffffffff1663abaa5f3e6040518163ffffffff1660e01b815260040160206040518083038186803b15801561387557600080fd5b505afa158015613889573d6000803e3d6000fd5b505050506040513d602081101561389f57600080fd5b8101908080519060200190929190505050905090565b60008073ffffffffffffffffffffffffffffffffffffffff16600160009054906101000a900473ffffffffffffffffffffffffffffffffffffffff1673ffffffffffffffffffffffffffffffffffffffff16148061393d5750600061393b600160009054906101000a900473ffffffffffffffffffffffffffffffffffffffff16611a57565b145b1561394e5761394c6000611a62565b505b600160009054906101000a900473ffffffffffffffffffffffffffffffffffffffff1673ffffffffffffffffffffffffffffffffffffffff166338cc48316040518163ffffffff1660e01b8152600401602060405180830381600087803b1580156139b857600080fd5b505af11580156139cc573d6000803e3d6000fd5b505050506040513d60208110156139e257600080fd5b810190808051906020019092919050505073ffffffffffffffffffffffffffffffffffffffff1660008054906101000a900473ffffffffffffffffffffffffffffffffffffffff1673ffffffffffffffffffffffffffffffffffffffff1614613b2a57600160009054906101000a900473ffffffffffffffffffffffffffffffffffffffff1673ffffffffffffffffffffffffffffffffffffffff166338cc48316040518163ffffffff1660e01b8152600401602060405180830381600087803b158015613aaf57600080fd5b505af1158015613ac3573d6000803e3d6000fd5b505050506040513d6020811015613ad957600080fd5b81019080805190602001909291905050506000806101000a81548173ffffffffffffffffffffffffffffffffffffffff021916908373ffffffffffffffffffffffffffffffffffffffff1602179055505b6060600467ffffffffffffffff81118015613b4457600080fd5b50604051908082528060200260200182016040528015613b7857816020015b6060815260200190600190039081613b635790505b50905083600060048110613b8857fe5b602002015181600081518110613b9a57fe5b602002602001018190525083600160048110613bb257fe5b602002015181600181518110613bc457fe5b602002602001018190525083600260048110613bdc57fe5b602002015181600281518110613bee57fe5b602002602001018190525083600360048110613c0657fe5b602002015181600381518110613c1857fe5b6020026020010181905250613c2e858285613cb2565b9150509392505050565b8060036000848152602001908152602001600020819055505050565b8060029080519060200190613c6a929190614618565b5050565b60008060008060405188815287602082015286604082015285606082015260208160808360006001610bb8f192508051915050818193509350505094509492505050565b60008073ffffffffffffffffffffffffffffffffffffffff16600160009054906101000a900473ffffffffffffffffffffffffffffffffffffffff1673ffffffffffffffffffffffffffffffffffffffff161480613d3a57506000613d38600160009054906101000a900473ffffffffffffffffffffffffffffffffffffffff16611a57565b145b15613d4b57613d496000611a62565b505b600160009054906101000a900473ffffffffffffffffffffffffffffffffffffffff1673ffffffffffffffffffffffffffffffffffffffff166338cc48316040518163ffffffff1660e01b8152600401602060405180830381600087803b158015613db557600080fd5b505af1158015613dc9573d6000803e3d6000fd5b505050506040513d6020811015613ddf57600080fd5b810190808051906020019092919050505073ffffffffffffffffffffffffffffffffffffffff1660008054906101000a900473ffffffffffffffffffffffffffffffffffffffff1673ffffffffffffffffffffffffffffffffffffffff1614613f2757600160009054906101000a900473ffffffffffffffffffffffffffffffffffffffff1673ffffffffffffffffffffffffffffffffffffffff166338cc48316040518163ffffffff1660e01b8152600401602060405180830381600087803b158015613eac57600080fd5b505af1158015613ec0573d6000803e3d6000fd5b505050506040513d6020811015613ed657600080fd5b81019080805190602001909291905050506000806101000a81548173ffffffffffffffffffffffffffffffffffffffff021916908373ffffffffffffffffffffffffffffffffffffffff1602179055505b60008060009054906101000a900473ffffffffffffffffffffffffffffffffffffffff1673ffffffffffffffffffffffffffffffffffffffff16632ef3accc86856040518363ffffffff1660e01b81526004018080602001838152602001828103825284818151815260200191508051906020019080838360005b83811015613fbd578082015181840152602081019050613fa2565b50505050905090810190601f168015613fea5780820380516001836020036101000a031916815260200191505b509350505050602060405180830381600087803b15801561400a57600080fd5b505af115801561401e573d6000803e3d6000fd5b505050506040513d602081101561403457600080fd5b81019080805190602001909291905050509050823a02670de0b6b3a764000001811115614067576000801b91505061420b565b606061407285614212565b905060008054906101000a900473ffffffffffffffffffffffffffffffffffffffff1673ffffffffffffffffffffffffffffffffffffffff1663c55c1cb68360008985896040518663ffffffff1660e01b8152600401808581526020018060200180602001848152602001838103835286818151815260200191508051906020019080838360005b838110156141155780820151818401526020810190506140fa565b50505050905090810190601f1680156141425780820380516001836020036101000a031916815260200191505b50838103825285818151815260200191508051906020019080838360005b8381101561417b578082015181840152602081019050614160565b50505050905090810190601f1680156141a85780820380516001836020036101000a031916815260200191505b5096505050505050506020604051808303818588803b1580156141ca57600080fd5b505af11580156141de573d6000803e3d6000fd5b50505050506040513d60208110156141f557600080fd5b8101908080519060200190929190505050925050505b9392505050565b606061421c61428f565b6142246147df565b6142308161040061429b565b614239816142e5565b60005b83518110156142785761426b84828151811061425457fe5b6020026020010151836142f390919063ffffffff16565b808060010191505061423c565b5061428281614318565b8060000151915050919050565b60405180590338823950565b60008190506000602082816142ac57fe5b06146142c557602081816142bc57fe5b06602003810190505b808360200181815250506040518084526000815281810160405250505050565b6142f0816004614326565b50565b6143008260028351614347565b614313818361448790919063ffffffff16565b505050565b614323816007614326565b50565b614343601f60058360ff16901b178361453290919063ffffffff16565b5050565b601781116143735761436e8160058460ff16901b60ff16178461453290919063ffffffff16565b614482565b60ff81116143b457614398601860058460ff16901b178461453290919063ffffffff16565b6143ae816001856145729092919063ffffffff16565b50614481565b61ffff81116143f6576143da601960058460ff16901b178461453290919063ffffffff16565b6143f0816002856145729092919063ffffffff16565b50614480565b63ffffffff811161443a5761441e601a60058460ff16901b178461453290919063ffffffff16565b614434816004856145729092919063ffffffff16565b5061447f565b67ffffffffffffffff811161447e57614466601b60058460ff16901b178461453290919063ffffffff16565b61447c816008856145729092919063ffffffff16565b505b5b5b5b5b505050565b61448f6147df565b826020015183600001515183510111156144bf576144be8360026144b8866020015186516145d9565b026145f5565b5b60008060008451905085518051602081830101945086518101825260208701935050505b6020811061450657815183526020830192506020820191506020810390506144e3565b60006001826020036101000a039050801983511681855116818117865250508694505050505092915050565b81602001516001836000015151011115614558576145578260028460200151026145f5565b5b815180516020818301018381536001820183525050505050565b61457a6147df565b8360200151846000015151830111156145a8576145a78460026145a18760200151866145d9565b026145f5565b5b60006001836101000a0390508451805184818301018684198251161781528582018352505050849150509392505050565b6000818311156145eb578290506145ef565b8190505b92915050565b606082600001519050614608838361429b565b6146128382614487565b50505050565b828054600181600116156101000203166002900490600052602060002090601f016020900481019282601f1061465957805160ff1916838001178555614687565b82800160010185558215614687579182015b8281111561468657825182559160200191906001019061466b565b5b50905061469491906147f9565b5090565b8280548282559060005260206000209081019282156146e7579160200282015b828111156146e65782518290805190602001906146d6929190614618565b50916020019190600101906146b8565b5b5090506146f49190614816565b5090565b828054828255906000526020600020908101928215614747579160200282015b82811115614746578251829080519060200190614736929190614618565b5091602001919060010190614718565b5b5090506147549190614816565b5090565b8280548282559060005260206000209081019282156147a7579160200282015b828111156147a6578251829080519060200190614796929190614618565b5091602001919060010190614778565b5b5090506147b49190614816565b5090565b60405180608001604052806004905b60608152602001906001900390816147c75790505090565b604051806040016040528060608152602001600081525090565b5b808211156148125760008160009055506001016147fa565b5090565b5b80821115614836576000818161482d919061483a565b50600101614817565b5090565b50805460018160011615610100020316600290046000825580601f10614860575061487f565b601f01602090049060005260206000209081019061487e91906147f9565b5b5056fe596f7520646f206e6f74206861766520656e6f7567682066756e647320746f2070756c6c21496e697469616c697a61626c653a20636f6e747261637420697320616c726561647920696e697469616c697a65646f6e6c7920312070756c6c7320616e642031302070756c6c732061726520617661696c61626c652121596f7520617265206e6f7420616c6c6f77656420746f2070756c6c206d6f7265207468616e2031302074696d657320696e20612073696e676c65207475726e7fb956469c5c9b89840d55b43537e66a98dd4811ea0a27224272c2e5622911e8537a2f8e86a46baec82864e98dd01e9ccc2f8bc5dfc9cbe5a91a290498dd96e4302e30303520457468657220697320746865206d696e696d756d20726571756972656d656e74a264697066735822122042acface750cce01e6c8382aa853ed02572de4ccab409935848f56689457cffb64736f6c634300060c0033",
  "immutableReferences": {},
  "source": "pragma solidity >= 0.6 < 0.7; \r\n\r\nimport \"./ProvableAPI_0.6.sol\";\r\nimport \"./Initializable.sol\";\r\n\r\ncontract GachaV2 is usingProvable, Initializable {    \r\n     uint _pull;\r\n    //pull rate five star 0.5%\r\n    //pull rate four star 5%\r\n    //pull rate three star 94.5%\r\n    string[] Fivestar;\r\n    string[] Fourstar;\r\n    string[] Threestar;\r\n    mapping(uint => Unit) public PullResult;\r\n    \r\n    event WantGachaPull(\r\n        string CharName,\r\n        uint8 Rating\r\n    );\r\n    \r\n    struct Unit{\r\n        string naam;\r\n        uint8 Rating;\r\n    }\r\n\r\n    uint168 constant pullCost = 5000000000000000;\r\n    Unit[] PullResultList;\r\n\r\n    function initialize() public payable initializer{\r\n        provable_setProof(proofType_Ledger);\r\n        _pull = 0;\r\n        PullResult[1] = Unit(\"bla\",1);\r\n        PullResultList;\r\n        Fivestar = [\"Diluc\", \"Keqing\", \"Qiqi\", \"Venti\", \"Jean\"];\r\n        Fourstar = [\"Beidou\", \"Xiangling\", \"Diona\", \"Fischl\", \"Barbara\", \"Razor\"];\r\n        Threestar = [\"Sword\", \"Bow\", \"Shield\", \"Great sword\", \"Mace\", \"Katana\", \"Saber\"];\r\n    }\r\n    \r\n    modifier requireEnoughDeposit {\r\n        require(msg.value >= 5000000000000000, \"0.005 Ether is the minimum requirement\");\r\n        _;\r\n    } \r\n    \r\n    /// @param pull with either 1 or 10 to determine the amount of pulls\r\n    /// @notice start with pulling the characters \r\n    function Start(uint pull) requireEnoughDeposit payable public { \r\n        require(pull == 1 || pull ==10, \"only 1 pulls and 10 pulls are available!!\");\r\n        require(msg.value / pullCost >= pull, \"You do not have enough funds to pull!\");\r\n        require(msg.value / pullCost <= 10, \"You are not allowed to pull more than 10 times in a single turn\");        \r\n        _pull  = pull;\r\n        PullCharacter();\r\n    }\r\n     \r\n    function __callback(bytes32  _queryId,string memory _result,bytes memory _proof ) override public {\r\n        require(msg.sender == provable_cbAddress());\r\n        if (provable_randomDS_proofVerify__returnCode(_queryId,_result,_proof)== 0) {\r\n            setName(uint256(keccak256(abi.encodePacked(_result))) % 200);\r\n        }\r\n    }\r\n\r\n    /// @notice start looping and calling the _calback\r\n    function PullCharacter() private {\r\n       for(uint i = 0; i < _pull; i++) {\r\n            provable_newRandomDSQuery(0,1,200000);\r\n        }\r\n    } \r\n    \r\n    /// @notice set the name and the rating of the character\r\n    /// @param RandomNumber to determine the rarity\r\n    function setName(uint256 RandomNumber) private {\r\n       if ( RandomNumber == 0){\r\n               PullResultList.push( Unit(Fivestar[RandomGenerator(RandomNumber, Fivestar.length)], 5));\r\n           } else if (RandomNumber> 0 && RandomNumber <= 10){\r\n               PullResultList.push(Unit( Fourstar[RandomGenerator(RandomNumber, Fourstar.length)], 4));\r\n           } else {\r\n               PullResultList.push(Unit(Threestar[RandomGenerator(RandomNumber, Threestar.length)], 3));\r\n           }\r\n        emit WantGachaPull(PullResultList[PullResultList.length -1 ].naam, PullResultList[PullResultList.length -1 ].Rating);\r\n    }\r\n   \r\n    /// @notice random number generator\r\n    /// @param extra is a number to for randomness in the generator\r\n    /// @param divide is a number to determine the range of the number\r\n    /// @return get a random number\r\n    function RandomGenerator(uint extra, uint divide) private view returns (uint8){\r\n       return uint8(uint(keccak256(abi.encodePacked(block.timestamp , msg.sender, extra))) % divide);\r\n    }\r\n    \r\n    // function close() public {\r\n    //   selfdestruct(msg.sender);\r\n    // }\r\n}",
  "sourcePath": "C:/Users/keanYl/source/repos/BC3_Kean/PD-09/contracts/GachaV2.sol",
  "compiler": {
    "name": "solc",
    "version": "0.6.12+commit.27d51765.Emscripten.clang"
  },
  "schemaVersion": "3.3.3",
  "updatedAt": "2021-01-07T16:59:45.176Z",
  "networkType": "ethereum",
  "devdoc": {
    "kind": "dev",
    "methods": {
      "Start(uint256)": {
        "params": {
          "pull": "with either 1 or 10 to determine the amount of pulls"
        }
      },
      "__callback(bytes32,string)": {
        "details": "The following `__callback` functions are just placeholders ideally      meant to be defined in child contract when proofs are used.      The function bodies simply silence compiler warnings."
      }
    },
    "version": 1
  },
  "userdoc": {
    "kind": "user",
    "methods": {
      "Start(uint256)": {
        "notice": "start with pulling the characters "
      }
    },
    "version": 1
  }
}