{
  "contractName": "Gacha",
  "abi": [
    {
      "anonymous": false,
      "inputs": [
        {
          "indexed": false,
          "internalType": "string",
          "name": "CharName",
          "type": "string"
        },
        {
          "indexed": false,
          "internalType": "uint8",
          "name": "Rating",
          "type": "uint8"
        }
      ],
      "name": "WantGachaPull",
      "type": "event"
    },
    {
      "inputs": [
        {
          "internalType": "uint256",
          "name": "",
          "type": "uint256"
        }
      ],
      "name": "PullResult",
      "outputs": [
        {
          "internalType": "string",
          "name": "naam",
          "type": "string"
        },
        {
          "internalType": "uint8",
          "name": "Rating",
          "type": "uint8"
        }
      ],
      "stateMutability": "view",
      "type": "function",
      "constant": true
    },
    {
      "inputs": [
        {
          "internalType": "bytes32",
          "name": "_myid",
          "type": "bytes32"
        },
        {
          "internalType": "string",
          "name": "_result",
          "type": "string"
        }
      ],
      "name": "__callback",
      "outputs": [],
      "stateMutability": "nonpayable",
      "type": "function"
    },
    {
      "inputs": [
        {
          "internalType": "bytes32",
          "name": "_myid",
          "type": "bytes32"
        },
        {
          "internalType": "string",
          "name": "_result",
          "type": "string"
        },
        {
          "internalType": "bytes",
          "name": "_proof",
          "type": "bytes"
        }
      ],
      "name": "__callback",
      "outputs": [],
      "stateMutability": "nonpayable",
      "type": "function"
    },
    {
      "inputs": [],
      "name": "initialize",
      "outputs": [],
      "stateMutability": "payable",
      "type": "function",
      "payable": true
    },
    {
      "inputs": [
        {
          "internalType": "uint256",
          "name": "pull",
          "type": "uint256"
        }
      ],
      "name": "Start",
      "outputs": [],
      "stateMutability": "nonpayable",
      "type": "function"
    }
  ],
  "bytecode": "0x608060405234801561001057600080fd5b506112d7806100206000396000f3fe60806040526004361061004a5760003560e01c806327dc297e1461004f57806338bbfa50146101215780638129fc1c1461028a578063e838f0c914610294578063f06a29c914610352575b600080fd5b34801561005b57600080fd5b5061011f6004803603604081101561007257600080fd5b81019080803590602001909291908035906020019064010000000081111561009957600080fd5b8201836020820111156100ab57600080fd5b803590602001918460018302840111640100000000831117156100cd57600080fd5b91908080601f016020809104026020016040519081016040528093929190818152602001838380828437600081840152601f19601f82011690508083019250505050505050919291929050505061038d565b005b34801561012d57600080fd5b506102886004803603606081101561014457600080fd5b81019080803590602001909291908035906020019064010000000081111561016b57600080fd5b82018360208201111561017d57600080fd5b8035906020019184600183028401116401000000008311171561019f57600080fd5b91908080601f016020809104026020016040519081016040528093929190818152602001838380828437600081840152601f19601f8201169050808301925050505050505091929192908035906020019064010000000081111561020257600080fd5b82018360208201111561021457600080fd5b8035906020019184600183028401116401000000008311171561023657600080fd5b91908080601f016020809104026020016040519081016040528093929190818152602001838380828437600081840152601f19601f8201169050808301925050505050505091929192905050506103e7565b005b61029261040a565b005b3480156102a057600080fd5b506102cd600480360360208110156102b757600080fd5b8101908080359060200190929190505050610981565b60405180806020018360ff168152602001828103825284818151815260200191508051906020019080838360005b838110156103165780820151818401526020810190506102fb565b50505050905090810190601f1680156103435780820380516001836020036101000a031916815260200191505b50935050505060405180910390f35b34801561035e57600080fd5b5061038b6004803603602081101561037557600080fd5b8101908080359060200190929190505050610a4a565b005b6103e38282600067ffffffffffffffff811180156103aa57600080fd5b506040519080825280601f01601f1916602001820160405280156103dd5781602001600182028036833780820191505090505b506103e7565b5050565b6000801b600360008060001b815260200190815260200160002081905550505050565b600560019054906101000a900460ff16806104295750610428610ac0565b5b806104415750600560009054906101000a900460ff16155b610496576040517f08c379a000000000000000000000000000000000000000000000000000000000815260040180806020018281038252602e81526020018061124b602e913960400191505060405180910390fd5b6000600560019054906101000a900460ff1615905080156104e8576001600560016101000a81548160ff0219169083151502179055506001600560006101000a81548160ff0219169083151502179055505b6040518060a001604052806040518060400160405280600581526020017f44696c756300000000000000000000000000000000000000000000000000000081525081526020016040518060400160405280600681526020017f4b6571696e67000000000000000000000000000000000000000000000000000081525081526020016040518060400160405280600481526020017f516971690000000000000000000000000000000000000000000000000000000081525081526020016040518060400160405280600581526020017f56656e746900000000000000000000000000000000000000000000000000000081525081526020016040518060400160405280600481526020017f4a65616e000000000000000000000000000000000000000000000000000000008152508152506007906005610628929190611021565b506040518060c001604052806040518060400160405280600681526020017f426569646f75000000000000000000000000000000000000000000000000000081525081526020016040518060400160405280600981526020017f5869616e676c696e67000000000000000000000000000000000000000000000081525081526020016040518060400160405280600581526020017f44696f6e6100000000000000000000000000000000000000000000000000000081525081526020016040518060400160405280600681526020017f46697363686c000000000000000000000000000000000000000000000000000081525081526020016040518060400160405280600781526020017f426172626172610000000000000000000000000000000000000000000000000081525081526020016040518060400160405280600581526020017f52617a6f7200000000000000000000000000000000000000000000000000000081525081525060089060066107a4929190611081565b506040518060e001604052806040518060400160405280600581526020017f53776f726400000000000000000000000000000000000000000000000000000081525081526020016040518060400160405280600381526020017f426f77000000000000000000000000000000000000000000000000000000000081525081526020016040518060400160405280600681526020017f536869656c64000000000000000000000000000000000000000000000000000081525081526020016040518060400160405280600b81526020017f47726561742073776f726400000000000000000000000000000000000000000081525081526020016040518060400160405280600481526020017f4d6163650000000000000000000000000000000000000000000000000000000081525081526020016040518060400160405280600681526020017f4b6174616e61000000000000000000000000000000000000000000000000000081525081526020016040518060400160405280600581526020017f5361626572000000000000000000000000000000000000000000000000000000815250815250600990600761095b9291906110e1565b50801561097e576000600560016101000a81548160ff0219169083151502179055505b50565b600a602052806000526040600020600091509050806000018054600181600116156101000203166002900480601f016020809104026020016040519081016040528092919081815260200182805460018160011615610100020316600290048015610a2d5780601f10610a0257610100808354040283529160200191610a2d565b820191906000526020600020905b815481529060010190602001808311610a1057829003601f168201915b5050505050908060010160009054906101000a900460ff16905082565b6001811480610a595750600a81145b610aae576040517f08c379a00000000000000000000000000000000000000000000000000000000081526004018080602001828103825260298152602001806112796029913960400191505060405180910390fd5b80600681905550610abd610ad7565b50565b6000803090506000813b9050600081149250505090565b60005b600654811015610fb8576000610af18260c8610fbb565b905060008160ff161415610c315760405180604001604052806007610b1b85600780549050610fbb565b60ff1681548110610b2857fe5b906000526020600020018054600181600116156101000203166002900480601f016020809104026020016040519081016040528092919081815260200182805460018160011615610100020316600290048015610bc65780601f10610b9b57610100808354040283529160200191610bc6565b820191906000526020600020905b815481529060010190602001808311610ba957829003601f168201915b50505050508152602001600560ff16815250600a60008481526020019081526020016000206000820151816000019080519060200190610c07929190611141565b5060208201518160010160006101000a81548160ff021916908360ff160217905550905050610eae565b60008160ff16118015610c485750600a8160ff1611155b15610d7f5760405180604001604052806008610c6985600880549050610fbb565b60ff1681548110610c7657fe5b906000526020600020018054600181600116156101000203166002900480601f016020809104026020016040519081016040528092919081815260200182805460018160011615610100020316600290048015610d145780601f10610ce957610100808354040283529160200191610d14565b820191906000526020600020905b815481529060010190602001808311610cf757829003601f168201915b50505050508152602001600460ff16815250600a60008481526020019081526020016000206000820151816000019080519060200190610d55929190611141565b5060208201518160010160006101000a81548160ff021916908360ff160217905550905050610ead565b60405180604001604052806009610d9b85600980549050610fbb565b60ff1681548110610da857fe5b906000526020600020018054600181600116156101000203166002900480601f016020809104026020016040519081016040528092919081815260200182805460018160011615610100020316600290048015610e465780601f10610e1b57610100808354040283529160200191610e46565b820191906000526020600020905b815481529060010190602001808311610e2957829003601f168201915b50505050508152602001600360ff16815250600a60008481526020019081526020016000206000820151816000019080519060200190610e87929190611141565b5060208201518160010160006101000a81548160ff021916908360ff1602179055509050505b5b7f6b7901c8fb582367b368c3eb6e744f53b99ab62dc4f270d5a0ce6d2a88a62b6e600a6000848152602001908152602001600020600001600a600085815260200190815260200160002060010160009054906101000a900460ff1660405180806020018360ff168152602001828103825284818154600181600116156101000203166002900481526020019150805460018160011615610100020316600290048015610f9b5780601f10610f7057610100808354040283529160200191610f9b565b820191906000526020600020905b815481529060010190602001808311610f7e57829003601f168201915b5050935050505060405180910390a1508080600101915050610ada565b50565b600081423385604051602001808481526020018373ffffffffffffffffffffffffffffffffffffffff1660601b815260140182815260200193505050506040516020818303038152906040528051906020012060001c8161101857fe5b06905092915050565b828054828255906000526020600020908101928215611070579160200282015b8281111561106f57825182908051906020019061105f929190611141565b5091602001919060010190611041565b5b50905061107d91906111c1565b5090565b8280548282559060005260206000209081019282156110d0579160200282015b828111156110cf5782518290805190602001906110bf929190611141565b50916020019190600101906110a1565b5b5090506110dd91906111c1565b5090565b828054828255906000526020600020908101928215611130579160200282015b8281111561112f57825182908051906020019061111f929190611141565b5091602001919060010190611101565b5b50905061113d91906111c1565b5090565b828054600181600116156101000203166002900490600052602060002090601f016020900481019282601f1061118257805160ff19168380011785556111b0565b828001600101855582156111b0579182015b828111156111af578251825591602001919060010190611194565b5b5090506111bd91906111e5565b5090565b5b808211156111e157600081816111d89190611202565b506001016111c2565b5090565b5b808211156111fe5760008160009055506001016111e6565b5090565b50805460018160011615610100020316600290046000825580601f106112285750611247565b601f01602090049060005260206000209081019061124691906111e5565b5b5056fe496e697469616c697a61626c653a20636f6e747261637420697320616c726561647920696e697469616c697a65646f6e6c7920312070756c6c7320616e642031302070756c6c732061726520617661696c61626c652121a2646970667358221220de568a1a54c4bada2a3a935749a35fb56f732b38a4c40902b712c0ff8be902df64736f6c634300060c0033",
  "immutableReferences": {},
  "source": "pragma solidity >= 0.6 < 0.7; \r\n\r\nimport \"./ProvableAPI_0.6.sol\";\r\nimport \"./Initializable.sol\";\r\n\r\ncontract Gacha is usingProvable, Initializable  {\r\n    uint _pull;\r\n    //pull rate five star 0.5%\r\n    //pull rate four star 5%\r\n    //pull rate three star 94.5%\r\n    string[] Fivestar;\r\n    string[] Fourstar;\r\n    string[] Threestar;\r\n    mapping(uint => Unit) public PullResult;\r\n    \r\n    event WantGachaPull(\r\n        string CharName,\r\n        uint8 Rating\r\n    );\r\n    \r\n    struct Unit{\r\n        string naam;\r\n        uint8 Rating;\r\n    }\r\n    \r\n    function initialize() public payable initializer {\r\n        Fivestar = [\"Diluc\", \"Keqing\", \"Qiqi\", \"Venti\", \"Jean\"];\r\n        Fourstar = [\"Beidou\", \"Xiangling\", \"Diona\", \"Fischl\", \"Barbara\", \"Razor\"];\r\n        Threestar = [\"Sword\", \"Bow\", \"Shield\", \"Great sword\", \"Mace\", \"Katana\", \"Saber\"];\r\n    }\r\n    function Start(uint pull) public {   \r\n        require(pull == 1 || pull ==10, \"only 1 pulls and 10 pulls are available!!\");\r\n        _pull = pull;\r\n        PullCharacter();\r\n    }\r\n    \r\n    function PullCharacter() private {\r\n        for(uint i =0; i< _pull; i++){\r\n        uint8 RNG = RandomGenerator(i,200);\r\n          if ( RNG == 0){\r\n               PullResult[i]= Unit(Fivestar[RandomGenerator(i, Fivestar.length)], 5);\r\n           } else if (RNG> 0 && RNG <= 10){\r\n               PullResult[i]= Unit( Fourstar[RandomGenerator(i, Fourstar.length)], 4);\r\n           } else {\r\n               PullResult[i]= Unit(Threestar[RandomGenerator(i, Threestar.length)], 3);\r\n           }\r\n            emit WantGachaPull(PullResult[i].naam, PullResult[i].Rating);\r\n        }\r\n    }\r\n    \r\n    function RandomGenerator(uint extra, uint divide) private view returns (uint8){\r\n       return uint8(uint(keccak256(abi.encodePacked(block.timestamp , msg.sender, extra))) % divide);\r\n    }\r\n}",
  "sourcePath": "C:/Users/keanYl/source/repos/BC3_Kean/PD-09/contracts/Gacha.sol",
  "compiler": {
    "name": "solc",
    "version": "0.6.12+commit.27d51765.Emscripten.clang"
  },
  "schemaVersion": "3.3.3",
  "updatedAt": "2021-01-07T16:59:45.168Z",
  "networkType": "ethereum",
  "devdoc": {
    "kind": "dev",
    "methods": {
      "__callback(bytes32,string)": {
        "details": "The following `__callback` functions are just placeholders ideally      meant to be defined in child contract when proofs are used.      The function bodies simply silence compiler warnings."
      }
    },
    "version": 1
  },
  "userdoc": {
    "kind": "user",
    "methods": {},
    "version": 1
  }
}