{
  "contractName": "GachaImpact.eth",
  "abi": [
    {
      "inputs": [],
      "name": "initialize",
      "outputs": [],
      "stateMutability": "nonpayable",
      "type": "function"
    },
    {
      "inputs": [
        {
          "internalType": "uint256",
          "name": "pull",
          "type": "uint256"
        }
      ],
      "name": "Start",
      "outputs": [],
      "stateMutability": "payable",
      "type": "function",
      "payable": true
    },
    {
      "inputs": [],
      "name": "getPullResultList",
      "outputs": [
        {
          "components": [
            {
              "internalType": "string",
              "name": "naam",
              "type": "string"
            },
            {
              "internalType": "uint8",
              "name": "Rating",
              "type": "uint8"
            }
          ],
          "internalType": "struct Gacha.Unit[]",
          "name": "",
          "type": "tuple[]"
        }
      ],
      "stateMutability": "view",
      "type": "function",
      "constant": true
    },
    {
      "inputs": [],
      "name": "getAllResult",
      "outputs": [
        {
          "components": [
            {
              "internalType": "string",
              "name": "naam",
              "type": "string"
            },
            {
              "internalType": "uint8",
              "name": "Rating",
              "type": "uint8"
            }
          ],
          "internalType": "struct Gacha.Unit[]",
          "name": "",
          "type": "tuple[]"
        }
      ],
      "stateMutability": "view",
      "type": "function",
      "constant": true
    },
    {
      "inputs": [],
      "name": "PullCharacter",
      "outputs": [],
      "stateMutability": "nonpayable",
      "type": "function"
    },
    {
      "inputs": [
        {
          "internalType": "uint256",
          "name": "RNG",
          "type": "uint256"
        }
      ],
      "name": "setCharachter",
      "outputs": [],
      "stateMutability": "nonpayable",
      "type": "function"
    },
    {
      "inputs": [
        {
          "internalType": "uint256",
          "name": "extra",
          "type": "uint256"
        },
        {
          "internalType": "uint256",
          "name": "divide",
          "type": "uint256"
        }
      ],
      "name": "RandomGenerator",
      "outputs": [
        {
          "internalType": "uint8",
          "name": "",
          "type": "uint8"
        }
      ],
      "stateMutability": "view",
      "type": "function",
      "constant": true
    }
  ],
  "bytecode": "0x608060405234801561001057600080fd5b506118b6806100206000396000f3fe6080604052600436106100705760003560e01c806388d37d061161004e57806388d37d06146100cc57806395d46b5a146100f7578063f06a29c914610122578063f4550c7a1461013e57610070565b806310d0d0d5146100755780633c4b29f21461008c5780638129fc1c146100b5575b600080fd5b34801561008157600080fd5b5061008a61017b565b005b34801561009857600080fd5b506100b360048036038101906100ae91906112f9565b6101b4565b005b3480156100c157600080fd5b506100ca610716565b005b3480156100d857600080fd5b506100e1610c72565b6040516100ee919061167e565b60405180910390f35b34801561010357600080fd5b5061010c610d90565b604051610119919061167e565b60405180910390f35b61013c600480360381019061013791906112f9565b610eae565b005b34801561014a57600080fd5b5061016560048036038101906101609190611322565b610fe7565b6040516101729190611720565b60405180910390f35b60005b6001548110156101b15760006101958260c8610fe7565b90506101a38160ff166101b4565b50808060010191505061017e565b50565b600081141561037e576101c561103f565b604051806040016040528060026101e185600280549050610fe7565b60ff16815481106101ee57fe5b906000526020600020018054600181600116156101000203166002900480601f01602080910402602001604051908101604052809291908181526020018280546001816001161561010002031660029004801561028c5780601f106102615761010080835404028352916020019161028c565b820191906000526020600020905b81548152906001019060200180831161026f57829003601f168201915b50505050508152602001600560ff168152509050600581908060018154018082558091505060019003906000526020600020906002020160009091909190915060008201518160000190805190602001906102e892919061105c565b5060208201518160010160006101000a81548160ff021916908360ff16021790555050506006819080600181540180825580915050600190039060005260206000209060020201600090919091909150600082015181600001908051906020019061035492919061105c565b5060208201518160010160006101000a81548160ff021916908360ff160217905550505050610713565b60008111801561038f5750600a8111155b156105555761039c61103f565b604051806040016040528060036103b885600380549050610fe7565b60ff16815481106103c557fe5b906000526020600020018054600181600116156101000203166002900480601f0160208091040260200160405190810160405280929190818152602001828054600181600116156101000203166002900480156104635780601f1061043857610100808354040283529160200191610463565b820191906000526020600020905b81548152906001019060200180831161044657829003601f168201915b50505050508152602001600460ff168152509050600581908060018154018082558091505060019003906000526020600020906002020160009091909190915060008201518160000190805190602001906104bf92919061105c565b5060208201518160010160006101000a81548160ff021916908360ff16021790555050506006819080600181540180825580915050600190039060005260206000209060020201600090919091909150600082015181600001908051906020019061052b92919061105c565b5060208201518160010160006101000a81548160ff021916908360ff160217905550505050610712565b61055d61103f565b6040518060400160405280600461057985600480549050610fe7565b60ff168154811061058657fe5b906000526020600020018054600181600116156101000203166002900480601f0160208091040260200160405190810160405280929190818152602001828054600181600116156101000203166002900480156106245780601f106105f957610100808354040283529160200191610624565b820191906000526020600020905b81548152906001019060200180831161060757829003601f168201915b50505050508152602001600360ff1681525090506005819080600181540180825580915050600190039060005260206000209060020201600090919091909150600082015181600001908051906020019061068092919061105c565b5060208201518160010160006101000a81548160ff021916908360ff1602179055505050600681908060018154018082558091505060019003906000526020600020906002020160009091909190915060008201518160000190805190602001906106ec92919061105c565b5060208201518160010160006101000a81548160ff021916908360ff1602179055505050505b5b50565b600060019054906101000a900460ff16806107355750610734611028565b5b8061074b575060008054906101000a900460ff16155b61078a576040517f08c379a0000000000000000000000000000000000000000000000000000000008152600401610781906116c0565b60405180910390fd5b60008060019054906101000a900460ff1615905080156107da576001600060016101000a81548160ff02191690831515021790555060016000806101000a81548160ff0219169083151502179055505b6040518060a001604052806040518060400160405280600581526020017f44696c756300000000000000000000000000000000000000000000000000000081525081526020016040518060400160405280600681526020017f4b6571696e67000000000000000000000000000000000000000000000000000081525081526020016040518060400160405280600481526020017f516971690000000000000000000000000000000000000000000000000000000081525081526020016040518060400160405280600581526020017f56656e746900000000000000000000000000000000000000000000000000000081525081526020016040518060400160405280600481526020017f4a65616e00000000000000000000000000000000000000000000000000000000815250815250600290600561091a9291906110dc565b506040518060c001604052806040518060400160405280600681526020017f426569646f75000000000000000000000000000000000000000000000000000081525081526020016040518060400160405280600981526020017f5869616e676c696e67000000000000000000000000000000000000000000000081525081526020016040518060400160405280600581526020017f44696f6e6100000000000000000000000000000000000000000000000000000081525081526020016040518060400160405280600681526020017f46697363686c000000000000000000000000000000000000000000000000000081525081526020016040518060400160405280600781526020017f426172626172610000000000000000000000000000000000000000000000000081525081526020016040518060400160405280600581526020017f52617a6f720000000000000000000000000000000000000000000000000000008152508152506003906006610a9692919061113c565b506040518060e001604052806040518060400160405280600581526020017f53776f726400000000000000000000000000000000000000000000000000000081525081526020016040518060400160405280600381526020017f426f77000000000000000000000000000000000000000000000000000000000081525081526020016040518060400160405280600681526020017f536869656c64000000000000000000000000000000000000000000000000000081525081526020016040518060400160405280600b81526020017f47726561742073776f726400000000000000000000000000000000000000000081525081526020016040518060400160405280600481526020017f4d6163650000000000000000000000000000000000000000000000000000000081525081526020016040518060400160405280600681526020017f4b6174616e61000000000000000000000000000000000000000000000000000081525081526020016040518060400160405280600581526020017f53616265720000000000000000000000000000000000000000000000000000008152508152506004906007610c4d92919061119c565b508015610c6f5760008060016101000a81548160ff0219169083151502179055505b50565b60606006805480602002602001604051908101604052809291908181526020016000905b82821015610d875783829060005260206000209060020201604051806040016040529081600082018054600181600116156101000203166002900480601f016020809104026020016040519081016040528092919081815260200182805460018160011615610100020316600290048015610d525780601f10610d2757610100808354040283529160200191610d52565b820191906000526020600020905b815481529060010190602001808311610d3557829003601f168201915b505050505081526020016001820160009054906101000a900460ff1660ff1660ff168152505081526020019060010190610c96565b50505050905090565b60606005805480602002602001604051908101604052809291908181526020016000905b82821015610ea55783829060005260206000209060020201604051806040016040529081600082018054600181600116156101000203166002900480601f016020809104026020016040519081016040528092919081815260200182805460018160011615610100020316600290048015610e705780601f10610e4557610100808354040283529160200191610e70565b820191906000526020600020905b815481529060010190602001808311610e5357829003601f168201915b505050505081526020016001820160009054906101000a900460ff1660ff1660ff168152505081526020019060010190610db4565b50505050905090565b6611c37937e0800074ffffffffffffffffffffffffffffffffffffffffff16341015610f0f576040517f08c379a0000000000000000000000000000000000000000000000000000000008152600401610f0690611700565b60405180910390fd5b6001811480610f1e5750600a81145b610f5d576040517f08c379a0000000000000000000000000000000000000000000000000000000008152600401610f54906116e0565b60405180910390fd5b806611c37937e0800074ffffffffffffffffffffffffffffffffffffffffff163481610f8557fe5b041015610fc7576040517f08c379a0000000000000000000000000000000000000000000000000000000008152600401610fbe906116a0565b60405180910390fd5b8060018190555060056000610fdc91906111fc565b610fe461017b565b50565b600081423385604051602001610fff93929190611641565b6040516020818303038152906040528051906020012060001c8161101f57fe5b06905092915050565b6000803090506000813b9050600081149250505090565b604051806040016040528060608152602001600060ff1681525090565b828054600181600116156101000203166002900490600052602060002090601f016020900481019282601f1061109d57805160ff19168380011785556110cb565b828001600101855582156110cb579182015b828111156110ca5782518255916020019190600101906110af565b5b5090506110d89190611220565b5090565b82805482825590600052602060002090810192821561112b579160200282015b8281111561112a57825182908051906020019061111a92919061105c565b50916020019190600101906110fc565b5b509050611138919061123d565b5090565b82805482825590600052602060002090810192821561118b579160200282015b8281111561118a57825182908051906020019061117a92919061105c565b509160200191906001019061115c565b5b509050611198919061123d565b5090565b8280548282559060005260206000209081019282156111eb579160200282015b828111156111ea5782518290805190602001906111da92919061105c565b50916020019190600101906111bc565b5b5090506111f8919061123d565b5090565b508054600082556002029060005260206000209081019061121d9190611261565b50565b5b80821115611239576000816000905550600101611221565b5090565b5b8082111561125d5760008181611254919061129c565b5060010161123e565b5090565b5b80821115611298576000808201600061127b919061129c565b6001820160006101000a81549060ff021916905550600201611262565b5090565b50805460018160011615610100020316600290046000825580601f106112c257506112e1565b601f0160209004906000526020600020908101906112e09190611220565b5b50565b6000813590506112f381611869565b92915050565b60006020828403121561130b57600080fd5b6000611319848285016112e4565b91505092915050565b6000806040838503121561133557600080fd5b6000611343858286016112e4565b9250506020611354858286016112e4565b9150509250929050565b600061136a83836115cf565b905092915050565b61138361137e826117a1565b61181d565b82525050565b60006113948261174b565b61139e818561176e565b9350836020820285016113b08561173b565b8060005b858110156113ec57848403895281516113cd858261135e565b94506113d883611761565b925060208a019950506001810190506113b4565b50829750879550505050505092915050565b600061140982611756565b611413818561177f565b93506114238185602086016117ea565b61142c8161184b565b840191505092915050565b6000611444602583611790565b91507f596f7520646f206e6f74206861766520656e6f7567682066756e647320746f2060008301527f70756c6c210000000000000000000000000000000000000000000000000000006020830152604082019050919050565b60006114aa602e83611790565b91507f496e697469616c697a61626c653a20636f6e747261637420697320616c72656160008301527f647920696e697469616c697a65640000000000000000000000000000000000006020830152604082019050919050565b6000611510602983611790565b91507f6f6e6c7920312070756c6c7320616e642031302070756c6c732061726520617660008301527f61696c61626c65212100000000000000000000000000000000000000000000006020830152604082019050919050565b6000611576602683611790565b91507f302e30303520457468657220697320746865206d696e696d756d20726571756960008301527f72656d656e7400000000000000000000000000000000000000000000000000006020830152604082019050919050565b600060408301600083015184820360008601526115ec82826113fe565b91505060208301516116016020860182611623565b508091505092915050565b61161d611618826117d3565b611841565b82525050565b61162c816117dd565b82525050565b61163b816117dd565b82525050565b600061164d828661160c565b60208201915061165d8285611372565b60148201915061166d828461160c565b602082019150819050949350505050565b600060208201905081810360008301526116988184611389565b905092915050565b600060208201905081810360008301526116b981611437565b9050919050565b600060208201905081810360008301526116d98161149d565b9050919050565b600060208201905081810360008301526116f981611503565b9050919050565b6000602082019050818103600083015261171981611569565b9050919050565b60006020820190506117356000830184611632565b92915050565b6000819050602082019050919050565b600081519050919050565b600081519050919050565b6000602082019050919050565b600082825260208201905092915050565b600082825260208201905092915050565b600082825260208201905092915050565b60006117ac826117b3565b9050919050565b600073ffffffffffffffffffffffffffffffffffffffff82169050919050565b6000819050919050565b600060ff82169050919050565b60005b838110156118085780820151818401526020810190506117ed565b83811115611817576000848401525b50505050565b60006118288261182f565b9050919050565b600061183a8261185c565b9050919050565b6000819050919050565b6000601f19601f8301169050919050565b60008160601b9050919050565b611872816117d3565b811461187d57600080fd5b5056fea26469706673582212207098c32a072322b2de14dbb175e2cc49c014c2961923526f69fbdf71e7cbc3cc64736f6c634300060c0033",
  "immutableReferences": {},
  "source": "pragma solidity >=0.6;\r\npragma experimental ABIEncoderV2;\r\n\r\nimport \"./Initializable.sol\";\r\n\r\ncontract Gacha is Initializable{\r\n    uint _pull;\r\n    //pull rate five star 0.5%\r\n    //pull rate four star 5%\r\n    //pull rate three star 94.5%\r\n    string[] Fivestar;\r\n    string[] Fourstar;\r\n    string[] Threestar;\r\n\r\n    Unit[]  PullResult;\r\n    Unit[]  AllPullResult;\r\n    uint168 constant pullCost = 5000000000000000;\r\n    \r\n    struct Unit{\r\n        string naam;\r\n        uint8 Rating;\r\n    }\r\n    \r\n    modifier requireEnoughDeposit {\r\n        require(msg.value >= pullCost, \"0.005 Ether is the minimum requirement\");\r\n        _;\r\n    } \r\n    \r\n    function initialize() public initializer {\r\n        Fivestar = [\"Diluc\", \"Keqing\", \"Qiqi\", \"Venti\", \"Jean\"];\r\n        Fourstar = [\"Beidou\", \"Xiangling\", \"Diona\", \"Fischl\", \"Barbara\", \"Razor\"];\r\n        Threestar = [\"Sword\", \"Bow\", \"Shield\", \"Great sword\", \"Mace\", \"Katana\", \"Saber\"];\r\n    }\r\n\r\n    /// @param pull with either 1 or 10 to determine the amount of pulls\r\n    /// @notice start with pulling the characters \r\n    function Start(uint pull) requireEnoughDeposit payable public {   \r\n        require(pull == 1 || pull ==10, \"only 1 pulls and 10 pulls are available!!\");\r\n        require(msg.value / pullCost >= pull, \"You do not have enough funds to pull!\");\r\n        _pull = pull;\r\n        delete PullResult;\r\n        PullCharacter();\r\n    }\r\n    \r\n    function getPullResultList() public view returns( Unit[] memory){\r\n        return PullResult;\r\n    }\r\n    \r\n    function getAllResult() public view returns(Unit[] memory){\r\n        return AllPullResult;\r\n    }\r\n    \r\n    /// @notice PullCharacter calls setCharachter\r\n    function PullCharacter() public {\r\n        for(uint i =0; i< _pull; i++){\r\n            uint8 RNG = RandomGenerator(i,200);\r\n            setCharachter(RNG);\r\n        }\r\n    }\r\n    \r\n    /// @notice set the name and the rating of the character\r\n    /// @param RNG to determine the rarity\r\n    function setCharachter(uint RNG) public {\r\n          if ( RNG == 0){\r\n               Unit memory result =Unit(Fivestar[RandomGenerator(RNG, Fivestar.length)], 5);\r\n               PullResult.push(result);\r\n               AllPullResult.push(result);\r\n           } else if (RNG> 0 && RNG <= 10){\r\n               Unit memory result = Unit( Fourstar[RandomGenerator(RNG, Fourstar.length)], 4);\r\n               PullResult.push(result);\r\n               AllPullResult.push(result);\r\n           } else {\r\n               Unit memory result = Unit(Threestar[RandomGenerator(RNG, Threestar.length)], 3);\r\n               PullResult.push(result);\r\n               AllPullResult.push(result);\r\n        }\r\n    }\r\n    \r\n    /// @notice random number generator\r\n    /// @param extra is a number to for randomness in the generator\r\n    /// @param divide is a number to determine the range of the number\r\n    /// @return get a random number\r\n    function RandomGenerator(uint extra, uint divide) public view returns (uint8){\r\n       return uint8(uint(keccak256(abi.encodePacked(block.timestamp , msg.sender, extra))) % divide);\r\n    }\r\n    \r\n    // function close() public {\r\n    //   selfdestruct(msg.sender);ks\r\n    // }\r\n}",
  "sourcePath": "C:/Users/keanYl/source/repos/BC3_Kean/PD-16/contracts/Gacha.sol",
  "compiler": {
    "name": "solc",
    "version": "0.6.12+commit.27d51765.Emscripten.clang"
  },
  "schemaVersion": "3.3.3",
  "updatedAt": "2021-01-28T16:34:10.885Z",
  "networkType": "ethereum",
  "devdoc": {
    "kind": "dev",
    "methods": {
      "RandomGenerator(uint256,uint256)": {
        "params": {
          "divide": "is a number to determine the range of the number",
          "extra": "is a number to for randomness in the generator"
        },
        "returns": {
          "_0": "get a random number"
        }
      },
      "Start(uint256)": {
        "params": {
          "pull": "with either 1 or 10 to determine the amount of pulls"
        }
      },
      "setCharachter(uint256)": {
        "params": {
          "RNG": "to determine the rarity"
        }
      }
    },
    "version": 1
  },
  "userdoc": {
    "kind": "user",
    "methods": {
      "PullCharacter()": {
        "notice": "PullCharacter calls setCharachter"
      },
      "RandomGenerator(uint256,uint256)": {
        "notice": "random number generator"
      },
      "Start(uint256)": {
        "notice": "start with pulling the characters "
      },
      "setCharachter(uint256)": {
        "notice": "set the name and the rating of the character"
      }
    },
    "version": 1
  }
}