{
  "contractName": "Gacha",
  "abi": [
    {
      "anonymous": false,
      "inputs": [
        {
          "indexed": false,
          "internalType": "string",
          "name": "CharName",
          "type": "string"
        },
        {
          "indexed": false,
          "internalType": "uint8",
          "name": "Rating",
          "type": "uint8"
        }
      ],
      "name": "WantGachaPull",
      "type": "event"
    },
    {
      "constant": true,
      "inputs": [
        {
          "internalType": "uint256",
          "name": "",
          "type": "uint256"
        }
      ],
      "name": "PullResult",
      "outputs": [
        {
          "internalType": "string",
          "name": "naam",
          "type": "string"
        },
        {
          "internalType": "uint8",
          "name": "Rating",
          "type": "uint8"
        }
      ],
      "payable": false,
      "stateMutability": "view",
      "type": "function"
    },
    {
      "constant": false,
      "inputs": [
        {
          "internalType": "uint256",
          "name": "pull",
          "type": "uint256"
        }
      ],
      "name": "Start",
      "outputs": [],
      "payable": false,
      "stateMutability": "nonpayable",
      "type": "function"
    }
  ],
  "bytecode": "0x60806040526040518060a001604052806040518060400160405280600581526020017f44696c756300000000000000000000000000000000000000000000000000000081525081526020016040518060400160405280600681526020017f4b6571696e67000000000000000000000000000000000000000000000000000081525081526020016040518060400160405280600481526020017f516971690000000000000000000000000000000000000000000000000000000081525081526020016040518060400160405280600581526020017f56656e746900000000000000000000000000000000000000000000000000000081525081526020016040518060400160405280600481526020017f4a65616e0000000000000000000000000000000000000000000000000000000081525081525060019060056200014692919062000492565b506040518060c001604052806040518060400160405280600681526020017f426569646f75000000000000000000000000000000000000000000000000000081525081526020016040518060400160405280600981526020017f5869616e676c696e67000000000000000000000000000000000000000000000081525081526020016040518060400160405280600581526020017f44696f6e6100000000000000000000000000000000000000000000000000000081525081526020016040518060400160405280600681526020017f46697363686c000000000000000000000000000000000000000000000000000081525081526020016040518060400160405280600781526020017f426172626172610000000000000000000000000000000000000000000000000081525081526020016040518060400160405280600581526020017f52617a6f720000000000000000000000000000000000000000000000000000008152508152506002906006620002c4929190620004f9565b506040518060e001604052806040518060400160405280600581526020017f53776f726400000000000000000000000000000000000000000000000000000081525081526020016040518060400160405280600381526020017f426f77000000000000000000000000000000000000000000000000000000000081525081526020016040518060400160405280600681526020017f536869656c64000000000000000000000000000000000000000000000000000081525081526020016040518060400160405280600b81526020017f47726561742073776f726400000000000000000000000000000000000000000081525081526020016040518060400160405280600481526020017f4d6163650000000000000000000000000000000000000000000000000000000081525081526020016040518060400160405280600681526020017f4b6174616e61000000000000000000000000000000000000000000000000000081525081526020016040518060400160405280600581526020017f536162657200000000000000000000000000000000000000000000000000000081525081525060039060076200047d92919062000560565b503480156200048b57600080fd5b50620006f3565b828054828255906000526020600020908101928215620004e6579160200282015b82811115620004e5578251829080519060200190620004d4929190620005c7565b5091602001919060010190620004b3565b5b509050620004f591906200064e565b5090565b8280548282559060005260206000209081019282156200054d579160200282015b828111156200054c5782518290805190602001906200053b929190620005c7565b50916020019190600101906200051a565b5b5090506200055c91906200064e565b5090565b828054828255906000526020600020908101928215620005b4579160200282015b82811115620005b3578251829080519060200190620005a2929190620005c7565b509160200191906001019062000581565b5b509050620005c391906200064e565b5090565b828054600181600116156101000203166002900490600052602060002090601f016020900481019282601f106200060a57805160ff19168380011785556200063b565b828001600101855582156200063b579182015b828111156200063a5782518255916020019190600101906200061d565b5b5090506200064a91906200067f565b5090565b6200067c91905b808211156200067857600081816200066e9190620006a7565b5060010162000655565b5090565b90565b620006a491905b80821115620006a057600081600090555060010162000686565b5090565b90565b50805460018160011615610100020316600290046000825580601f10620006cf5750620006f0565b601f016020900490600052602060002090810190620006ef91906200067f565b5b50565b6108c580620007036000396000f3fe608060405234801561001057600080fd5b50600436106100365760003560e01c8063e838f0c91461003b578063f06a29c9146100ef575b600080fd5b6100676004803603602081101561005157600080fd5b810190808035906020019092919050505061011d565b60405180806020018360ff1660ff168152602001828103825284818151815260200191508051906020019080838360005b838110156100b3578082015181840152602081019050610098565b50505050905090810190601f1680156100e05780820380516001836020036101000a031916815260200191505b50935050505060405180910390f35b61011b6004803603602081101561010557600080fd5b81019080803590602001909291905050506101e6565b005b6004602052806000526040600020600091509050806000018054600181600116156101000203166002900480601f0160208091040260200160405190810160405280929190818152602001828054600181600116156101000203166002900480156101c95780601f1061019e576101008083540402835291602001916101c9565b820191906000526020600020905b8154815290600101906020018083116101ac57829003601f168201915b5050505050908060010160009054906101000a900460ff16905082565b60018114806101f55750600a81145b61024a576040517f08c379a00000000000000000000000000000000000000000000000000000000081526004018080602001828103825260298152602001806108686029913960400191505060405180910390fd5b8060008190555061025961025c565b50565b60008090505b6000548110156107435760006102798260c8610746565b905060008160ff1614156103b957604051806040016040528060016102a385600180549050610746565b60ff16815481106102b057fe5b906000526020600020018054600181600116156101000203166002900480601f01602080910402602001604051908101604052809291908181526020018280546001816001161561010002031660029004801561034e5780601f106103235761010080835404028352916020019161034e565b820191906000526020600020905b81548152906001019060200180831161033157829003601f168201915b50505050508152602001600560ff1681525060046000848152602001908152602001600020600082015181600001908051906020019061038f9291906107c2565b5060208201518160010160006101000a81548160ff021916908360ff160217905550905050610636565b60008160ff161180156103d05750600a8160ff1611155b1561050757604051806040016040528060026103f185600280549050610746565b60ff16815481106103fe57fe5b906000526020600020018054600181600116156101000203166002900480601f01602080910402602001604051908101604052809291908181526020018280546001816001161561010002031660029004801561049c5780601f106104715761010080835404028352916020019161049c565b820191906000526020600020905b81548152906001019060200180831161047f57829003601f168201915b50505050508152602001600460ff168152506004600084815260200190815260200160002060008201518160000190805190602001906104dd9291906107c2565b5060208201518160010160006101000a81548160ff021916908360ff160217905550905050610635565b6040518060400160405280600361052385600380549050610746565b60ff168154811061053057fe5b906000526020600020018054600181600116156101000203166002900480601f0160208091040260200160405190810160405280929190818152602001828054600181600116156101000203166002900480156105ce5780601f106105a3576101008083540402835291602001916105ce565b820191906000526020600020905b8154815290600101906020018083116105b157829003601f168201915b50505050508152602001600360ff1681525060046000848152602001908152602001600020600082015181600001908051906020019061060f9291906107c2565b5060208201518160010160006101000a81548160ff021916908360ff1602179055509050505b5b7f6b7901c8fb582367b368c3eb6e744f53b99ab62dc4f270d5a0ce6d2a88a62b6e600460008481526020019081526020016000206000016004600085815260200190815260200160002060010160009054906101000a900460ff1660405180806020018360ff1660ff1681526020018281038252848181546001816001161561010002031660029004815260200191508054600181600116156101000203166002900480156107265780601f106106fb57610100808354040283529160200191610726565b820191906000526020600020905b81548152906001019060200180831161070957829003601f168201915b5050935050505060405180910390a1508080600101915050610262565b50565b600081423385604051602001808481526020018373ffffffffffffffffffffffffffffffffffffffff1673ffffffffffffffffffffffffffffffffffffffff1660601b815260140182815260200193505050506040516020818303038152906040528051906020012060001c816107b957fe5b06905092915050565b828054600181600116156101000203166002900490600052602060002090601f016020900481019282601f1061080357805160ff1916838001178555610831565b82800160010185558215610831579182015b82811115610830578251825591602001919060010190610815565b5b50905061083e9190610842565b5090565b61086491905b80821115610860576000816000905550600101610848565b5090565b9056fe6f6e6c7920312070756c6c7320616e642031302070756c6c732061726520617661696c61626c652121a265627a7a72315820dddc541e3ad43a7385105c936fcfd93e3dfaed6a5d39dc75105b0bcae099eab564736f6c63430005100032",
  "source": "pragma solidity >=0.5.16;\r\n\r\ncontract Gacha {\r\n    uint _pull;\r\n    //pull rate five star 0.5%\r\n    //pull rate four star 5%\r\n    //pull rate three star 94.5%\r\n    string[] Fivestar = [\"Diluc\", \"Keqing\", \"Qiqi\", \"Venti\", \"Jean\"];\r\n    string[] Fourstar = [\"Beidou\", \"Xiangling\", \"Diona\", \"Fischl\", \"Barbara\", \"Razor\"];\r\n    string[] Threestar = [\"Sword\", \"Bow\", \"Shield\", \"Great sword\", \"Mace\", \"Katana\", \"Saber\"];\r\n    mapping(uint => Unit) public PullResult;\r\n    \r\n    event WantGachaPull(\r\n            string CharName,\r\n            uint8 Rating\r\n        );\r\n    \r\n    struct Unit{\r\n        string naam;\r\n        uint8 Rating;\r\n    }\r\n    \r\n    function Start(uint pull) public {   \r\n        require(pull == 1 || pull ==10, \"only 1 pulls and 10 pulls are available!!\");\r\n        _pull = pull;\r\n        PullCharacter();\r\n    }\r\n    \r\n    function PullCharacter() private {\r\n        for(uint i =0; i< _pull; i++){\r\n        uint8 RNG = RandomGenerator(i,200);\r\n          if ( RNG == 0){\r\n               PullResult[i]= Unit(Fivestar[RandomGenerator(i, Fivestar.length)], 5);\r\n           } else if (RNG> 0 && RNG <= 10){\r\n               PullResult[i]= Unit( Fourstar[RandomGenerator(i, Fourstar.length)], 4);\r\n           } else {\r\n               PullResult[i]= Unit(Threestar[RandomGenerator(i, Threestar.length)], 3);\r\n           }\r\n            emit WantGachaPull(PullResult[i].naam, PullResult[i].Rating);\r\n        }\r\n    }\r\n    \r\n    function RandomGenerator(uint extra, uint divide) private view returns (uint8){\r\n       return uint8(uint(keccak256(abi.encodePacked(block.timestamp , msg.sender, extra))) % divide);\r\n    }\r\n}",
  "sourcePath": "C:/Users/keanYl/source/repos/BC3_Kean/PD-07/contracts/Gachagame.sol",
  "compiler": {
    "name": "solc",
    "version": "0.5.16+commit.9c3226ce.Emscripten.clang"
  },
  "schemaVersion": "3.3.3",
  "updatedAt": "2020-12-23T20:30:28.587Z",
  "networkType": "ethereum",
  "devdoc": {
    "methods": {}
  },
  "userdoc": {
    "methods": {}
  }
}